:020000040000FA
:0400000049EF02F0D2
:08000800056ED8CF06F0E0CF31
:1000100007F00001E9CF0DF0EACF08F0E1CF09F0D9
:10002000E2CF0AF0D9CF0BF0DACF0CF0F3CF14F017
:10003000F4CF15F0FACF16F000C00FF001C010F0A9
:1000400002C011F003C012F004C013F0F2A82CEFAC
:1000500000F0F2B27FEF00F09DA632EF00F09EB606
:10006000D2EF01F00FC000F010C001F011C002F09B
:1000700012C003F013C004F00E8E0DC0E9FF08C0DB
:10008000EAFF09C0E1FF0AC0E2FF0BC0D9FF0CC0C4
:10009000DAFF14C0F3FF15C0F4FF16C0FAFF0550D5
:1000A00007C0E0FF06C0D8FF1000F2CF0EF0F29EAE
:1000B000F76AC40FF66E000EF7220900F5500EBE67
:1000C000F28E1200280C0106F76AD80FF66E000EA9
:1000D000F7220900F55012000C2048657820257899
:1000E000200A0000F76AF40FF66E000EF7220900EE
:1000F000F55012004C6F6E67312025640000938428
:1001000081A401D01A2AF29232EF00F0336A959658
:100110008C8600009588339083B83380958A33921B
:1001200083BA3382958C339483BC3384958E339613
:1001300083BE338695968C9633C001F0000C95945F
:100140008C840000E3DF01C032F0E0DF01C031F059
:100150003238006EF00E001600503110016E000CA7
:1001600032B002D08C9801D08C88959832B202D0EF
:100170008C9A01D08C8A959A32B402D08C9C01D092
:100180008C8C959C32B602D08C9E01D08C8E959E24
:10019000000095968C86030E006E002EFED7959675
:1001A0008C96000C95928C92CADF01C031F001BE92
:1001B000FBD72F5203E095928C8202D095928C92BD
:1001C000000095948C94000095968C963038316E92
:1001D0000F0E311631C032F0C3DF30500F0B316ECD
:1001E000326EBEDF000CEA6A2B0EE96EEF500DE0B6
:1001F000060E016E006A002EFED7012EFBD77B0E85
:10020000006E002EFED7EF2EF3D7000C2C2C01D061
:1002100003D0400E2D6E01D02D6A010E2B5C2D26D1
:100220002D5080092E6E2F6A306EBCDF38EF01F042
:100230002A500C0A05E0060A0BE0020A0EE012D072
:100240002F6A010E306EAEDF020E2B6ECCDF10D0A7
:10025000010E2B6E020E2C6ED9D72F6A100E306E47
:10026000A1DF06D0010E2F6E2AC030F09BDF00D038
:10027000000C25BE0FD00F0E006E243800160A0E9B
:10028000005C03E2300E002602D02550002600C09C
:100290002AF0CEDF0F0E24160A0E245C02E2300E86
:1002A00002D0259E2550242624C02AF0C1DFE6EF87
:1002B00001F02B50016A2A5C03E22AC000F00CD046
:1002C000006A080E2C6E2A3600362B50005CD8B01F
:1002D000006E01362C2EF7D7000C200E25A8300E0C
:1002E000266E24C000F024AE07D0001E002A00C0F5
:1002F00024F02D0E266E258E015024C02AF0640EA7
:100300002B6ED7DF00C024F0300E0124276E24C0EE
:100310002AF00A0E2B6ECDDF300E0024296E300E2F
:100320000124286E26C000F025A602D025AE259413
:1003300025B80BD025AE22D025B420D000C027F0A0
:1003400025B21CD000C028F019D0300E275C16E171
:1003500000C027F0200E266E25A604D02594258205
:1003600025AE2592300E285C09E100C028F0200E51
:10037000276E25A6F7D7259225AE259025A403D074
:1003800026C02AF055DF25A203D027C02AF050DF6F
:1003900025A003D028C02AF04BDF29C02AF048DF6F
:1003A000FBEF01F0C7A028D09D96C9CF19F0236AB2
:1003B00023508ADE232A006E2A6E3ADF060E235C63
:1003C000F7E119C024F0570E256E53D7200E2A6E80
:1003D0002FDF0A0E2A6E2CDF236A235083DE232AA6
:1003E000006E2A6E25DF060E235CF7E119C024F0AB
:1003F0001F0E256E72D79D869E9632EF00F0959265
:100400008C9295948C9495968C96186AF2BE188E60
:10041000F29E0F0E2B6EE7DE18BEF28E1B6A1B508B
:10042000020814E3186AF2BE188EF29E030E326EB2
:1004300097DE18BEF28E186AF2BE188EF29E050E76
:100440002B6ED1DE18BEF28E1B2AE9D7186AF2BED7
:10045000188EF29E020E326E83DE18BEF28E1B6A7A
:100460001B50030814E3036A1B50F2CF1CF0F29EEA
:100470001CDE1CBEF28E1D6E186AF2BE188EF29E35
:100480002F6A306E8FDE18BEF28E1B2AE9D75CEF22
:1004900002F0F86AD09E0D8EEA6AE96AC150C00B7C
:1004A0000F09C16E070EB46E196A1A6A9294899484
:1004B00093948A94F288A3D79D86C00EF212C69AAE
:1004C000949E93809392210EC66E800EC76E186A1A
:1004D000F2BE188EF29E280E2B6E85DE18BEF28EAE
:0E04E000C9500F0EC96EC730FEE3F1D70300FE
:020000040030CA
:0E000000000B1E1E008381000FC00FE00F409A
:00000001FF
;PIC18F4550
