:020000040000FA
:0400000065EF00F0B8
:08000800056ED8CF06F0E0CF31
:1000100007F00001E9CF0DF0EACF08F0E1CF09F0D9
:10002000E2CF0AF0D9CF0BF0DACF0CF0F3CF14F017
:10003000F4CF15F0FACF16F000C00FF001C010F0A9
:1000400002C011F003C012F004C013F0F2A82CEFAC
:1000500000F0F2B255EF00F0F0A632EF00F0F0B091
:100060005DEF00F00FC000F010C001F011C002F011
:1000700012C003F013C004F00E8E0DC0E9FF08C0DB
:10008000EAFF09C0E1FF0AC0E2FF0BC0D9FF0CC0C4
:10009000DAFF14C0F3FF15C0F4FF16C0FAFF0550D5
:1000A00007C0E0FF06C0D8FF1000938081A002D0F7
:1000B000010E1826F29232EF00F0938281A202D054
:1000C000010E1926F09032EF00F0F86AD09E0D8EE6
:1000D000EA6AE96A600ED36ED350C150C00B0F09B3
:1000E000C16E070EB46E186A196A1A6A1B6A1C6A16
:1000F0001D6A1E6A1F6A206AC69A949A9488928A18
:100100009486340EC66E400EC76EF288F086F28674
:100110009D86C00EF212C9CF19F0C950020EC96EE9
:08012000C730FEE3F8D703002D
:020000040030CA
:0E00000000081E1E008381000FC00FE00F409D
:00000001FF
;PIC18F2520
